:020000040800F2
:100000000050002069050008B1050008B10500088E
:10001000B1050008B1050008B105000800000000A6
:10002000000000000000000000000000B105000812
:10003000B105000800000000B10500085D010008DE
:10004000B1050008B1050008B1050008B1050008B8
:10005000B1050008B1050008B1050008B1050008A8
:10006000B1050008B1050008B1050008B105000898
:10007000B1050008B1050008B1050008B105000888
:10008000B1050008B1050008B1050008B105000878
:10009000B1050008B1050008B1050008B105000868
:1000A000B1050008B1050008B1050008B105000858
:1000B000B1050008B1050008B1050008B105000848
:1000C000B1050008B1050008B1050008B105000838
:1000D000B1050008B1050008B1050008B105000828
:1000E000B1050008B1050008B105000800000000D6
:1000F0000000000000000000000000000000000000
:0C01000000000000000000005FF808F1A3
:10010C0010B5054C237833B9044B13B10448AFF345
:10011C0000800123237010BD5C0000200000000053
:10012C001C26000808B5034B1BB103490348AFF369
:10013C00008008BD00000000600000201C260008A4
:10014C00034613F8012B002AFBD1181A013870470B
:10015C0080B500AF00F06EFA00F0DEFD00BF80BD90
:10016C0080B59AB000AF402000F062F800F01CFAA5
:10017C0000F014F800F0C8F8074800F096FB0346AE
:10018C00002B02D0052000F031F800F0FBF86420C1
:10019C0000F06CFA00BFF8E7C000002080B500AF9B
:1001AC00104B114A1A600F4B4FF4E1325A600D4B51
:1001BC0000229A600B4B0022DA600A4B00221A6173
:1001CC00084B0C225A61074B00229A61054801F03A
:1001DC0043FB0346002B02D0032000F007F800BFBE
:1001EC0080BD00BF780000200048004080B582B080
:1001FC0000AF0346FB71FB791A460A490A4801F025
:10020C004FFD0948FFF79CFF03469AB24FF0FF33AE
:10021C000549064801F070FB4FF47A7000F026FA9D
:10022C0000BFE8E734260008E80000207800002032
:10023C0080B592B000AF0346FB7107F11C03282276
:10024C000021184601F04CFD0123FB614FF4803373
:10025C003B620223BB634FF48033FB63FB79202B9F
:10026C0002D0402B11D048E04FF4C0133B640F2355
:10027C00BB600223FB6080233B614FF480637B6196
:10028C000023BB6102237B6410E04FF4C0133B647A
:10029C000F23BB600223FB6000233B614FF48063A0
:1002AC007B610023BB6102237B6400BF07F11C034D
:1002BC00184600F0C1FE0346002B02D00220FFF7C7
:1002CC0095FF07F10803796C184601F037F90346DE
:1002DC00002B02D00220FFF789FF094B00221A6085
:1002EC0001F06AFA0346074AA2FB03239B0918464E
:1002FC0000F0E9FC042000F0F3FC4837BD4680BD5B
:10030C0000004242D34D621080B500AF282200217C
:10031C001A4801F0E5FC194B194A1A60174B4FF0BB
:10032C0080429A60154B00225A76144B0122DA76E1
:10033C00124B00229A76114B00221A770F4B002297
:10034C001A760E4B00225A770C4B02225A600B4B3A
:10035C000022DA60094B4FF440221A61074B4FF42C
:10036C0080125A61054800F0A5F90346002B02D013
:10037C000120FFF73BFF00BF80BD00BFC000002085
:10038C000064004080B58AB000AF234A07F108032F
:10039C0092E8030083E8030007F110031822002100
:1003AC00184601F09DFC08233B6240F25D633B6103
:1003BC000023BB610023FB613B1D07F1080207F121
:1003CC001001164800F0B5FA0346002B02D00420A9
:1003DC00FFF70CFF00BF7B681946104800F078FB54
:1003EC000346002BF7D107F108030D49184601F01D
:1003FC0057FC07F108031846FFF7A2FE03469AB212
:10040C0007F108014FF0FF33064801F075FA00BF01
:10041C002837BD4680BD00BF60260008C000002004
:10042C00482600087800002080B500AF052000F0B9
:10043C0023FC00BF80BD000080B588B000AF7860A1
:10044C001E4BDB691D4A43F48023D3611B4BDB69D4
:10045C0003F48023FB60FB68184B9B69174A43F03D
:10046C0008039361154B9B6903F00803BB60BB68E1
:10047C0007F1100310220021184601F031FC4FF453
:10048C0080633B6102237B610323FB6107F1100353
:10049C0019460B4800F04CFC4FF400633B61002301
:1004AC007B610023BB6107F110031946044800F07F
:1004BC003FFC00BF2037BD4680BD00BF001002408E
:1004CC00000C014080B588B000AF78601E4BDB6932
:1004DC001D4A43F00073D3611B4BDB6903F00073BF
:1004EC00FB60FB68184B9B69174A43F0040393614C
:1004FC00154B9B6903F00403BB60BB6807F1100349
:10050C0010220021184601F0EBFB4FF480533B61A5
:10051C0002237B610323FB6107F1100319460B488F
:10052C0000F006FC4FF400633B6100237B61002369
:10053C00BB6107F110031946044800F0F9FB00BF3A
:10054C002037BD4680BD00BF0010024000080140AE
:10055C0080B400AF00BFBD4680BC7047FFF7F8FF0A
:10056C000B480C490C4A002302E0D458C450043305
:10057C00C4188C42F9D3094A094C002301E01360DA
:10058C000432A242FBD301F0B3FBFFF7E9FD704745
:10059C00000000205C000020D82600085C00002031
:1005AC009C020020FEE7000080B500AF084B1B68E2
:1005BC00074A43F010031360032000F05DFB0F208B
:1005CC0000F008F8FFF730FF0023184680BD00BF8D
:1005DC000020024080B582B000AF7860124B1A68E0
:1005EC00124B1B7819464FF47A73B3FBF1F3B2FB41
:1005FC00F3F3184600F067FB0346002B01D00123F0
:10060C000EE07B680F2B0AD8002279684FF0FF3080
:10061C0000F03DFB064A7B681360002300E00123D9
:10062C0018460837BD4680BD000000200800002099
:10063C000400002080B400AF054B1B781A46054B14
:10064C001B681344034A136000BFBD4680BC70474F
:10065C00080000204C01002080B400AF024B1B6846
:10066C001846BD4680BC70474C01002080B584B054
:10067C0000AF7860FFF7F0FFB8607B68FB60FB6849
:10068C00B3F1FF3F05D00A4B1B781A46FB681344A5
:10069C00FB6000BFFFF7E0FF0246BB68D31AFA68A5
:1006AC009A42F7D800BF00BF1037BD4680BD00BFCF
:1006BC000800002080B584B000AF78607B68002B08
:1006CC0001D10123EDE07B6893F82030DBB2002BE5
:1006DC0002D17868FFF7F6FE7B681B681A687B68A6
:1006EC001B6842F001021A60FFF7B6FFF86012E0D7
:1006FC00FFF7B2FF0246FB68D31A0A2B0BD97B68B3
:10070C005B6A43F400327B685A627B68052283F88B
:10071C0020200123C5E07B681B685B6803F00103A4
:10072C00002BE5D07B681B681A687B681B6822F07D
:10073C0002021A60FFF790FFF86012E0FFF78CFFDF
:10074C000246FB68D31A0A2B0BD97B685B6A43F40D
:10075C0000327B685A627B68052283F820200123D3
:10076C009FE07B681B685B6803F00203002BE5D1FC
:10077C007B681B7E012B08D17B681B681A687B6821
:10078C001B6842F080021A6007E07B681B681A68DD
:10079C007B681B6822F080021A607B685B7E012BF1
:1007AC0008D17B681B681A687B681B6842F04002A2
:1007BC001A6007E07B681B681A687B681B6822F06C
:1007CC0040021A607B689B7E012B08D17B681B68FA
:1007DC001A687B681B6842F020021A6007E07B688D
:1007EC001B681A687B681B6822F020021A607B6801
:1007FC00DB7E012B08D17B681B681A687B681B6841
:10080C0022F010021A6007E07B681B681A687B688C
:10081C001B6842F010021A607B681B7F012B08D109
:10082C007B681B681A687B681B6842F008021A60B8
:10083C0007E07B681B681A687B681B6822F008025B
:10084C001A607B685B7F012B08D17B681B681A6878
:10085C007B681B6842F004021A6007E07B681B6827
:10086C001A687B681B6822F004021A607B689A681D
:10087C007B68DB681A437B681B691A437B685B697E
:10088C0042EA03017B685B685A1E7B681B680A435B
:10089C00DA617B6800225A627B68012283F820208F
:1008AC00002318461037BD4680BD80B584B000AF1C
:1008BC0078607B6893F82030DBB2012B2ED17B68FB
:1008CC00022283F820207B681B681A687B681B68EF
:1008DC0022F001021A60FFF7BFFEF86012E0FFF78A
:1008EC00BBFE0246FB68D31A0A2B0BD97B685B6AEA
:1008FC0043F400327B685A627B68052283F820201F
:10090C00012312E07B681B685B6803F00103002B7A
:10091C00E5D17B6800225A62002306E07B685B6AA3
:10092C0043F400227B685A62012318461037BD46F7
:10093C0080BD80B489B000AFF860B9607A603B606C
:10094C00FB6893F82030FB77FB681B689B68BB61E6
:10095C00FB7F012B03D0FB7F022B40F0AD80BB69EA
:10096C0003F08063002B0AD1BB6903F00063002BFA
:10097C0005D1BB6903F08053002B00F09580BB6957
:10098C001B0E03F003037B6101227B699A403B68D9
:10099C001A60BB689B68002B0DD1BB681B685A059D
:1009AC00BB68DB68F96809681A437B6918331B015B
:1009BC000B441A600FE0BB685B68DA00BB689B688D
:1009CC001A43BB68DB68F96809681A437B691833FA
:1009DC001B010B441A60FB681968BB681A697B69B8
:1009EC0018331B010B4404331A60BB681B7D012BAD
:1009FC0011D1FB681A687B6918331B01134404334B
:100A0C001B68FA68116843F480727B6918331B0108
:100A1C000B4404331A607B6807331B781A067B6817
:100A2C0006331B781B041A437B6805331B781B02A7
:100A3C0013437A68043212781046FA68116843EA54
:100A4C0000027B691B010B4403F5C6731A607B68BB
:100A5C0003331B781A067B6802331B781B041A437A
:100A6C007B6801331B781B0213437A68127810469B
:100A7C00FA68116843EA00027B691B010B4403F519
:100A8C00C4731A60FB681A687B6918331B01134422
:100A9C001B68FA68116843F001027B6918331B016B
:100AAC000B441A6000230EE0FB685B6A43F40012EF
:100ABC00FB685A62012306E0FB685B6A43F4802200
:100ACC00FB685A62012318462437BD4680BC704728
:100ADC0080B485B000AF786039600023FB607B6820
:100AEC0093F82030FB72FB7A012B02D0FB7A022B9D
:100AFC000BD17B681B689A683B689B061A403B6865
:100B0C009B069A4201D00123FB60FB681846143700
:100B1C00BD4680BC7047000080B485B000AF7860E3
:100B2C007B6803F00703FB600C4BDB68BB60BA68A7
:100B3C004FF6FF031340BB60FB681A02BB681343FC
:100B4C0043F0BF6343F40033BB60044ABB68D3601B
:100B5C0000BF1437BD4680BC704700BF00ED00E0FD
:100B6C0080B400AF044BDB681B0A03F00703184684
:100B7C00BD4680BC704700BF00ED00E080B483B080
:100B8C0000AF03463960FB7197F90730002B0ADB85
:100B9C003B68DAB20C4997F907301201D2B20B4418
:100BAC0083F800230AE03B68DAB20849FB7903F0CA
:100BBC000F03043B1201D2B20B441A7600BF0C3760
:100BCC00BD4680BC704700BF00E100E000ED00E0D6
:100BDC0080B489B000AFF860B9607A60FB6803F04C
:100BEC000703FB61FB69C3F10703042B28BF042334
:100BFC00BB61FB690433062B02D9FB69033B00E0A4
:100C0C0000237B614FF0FF32BB6902FA03F3DA4336
:100C1C00BB681A407B699A404FF0FF317B6901FA3F
:100C2C0003F3D9437B680B40134318462437BD4666
:100C3C0080BC704780B582B000AF78607B68013BA8
:100C4C00B3F1807F01D301230FE00A4A7B68013B9B
:100C5C0053600F214FF0FF30FFF790FF054B002240
:100C6C009A60044B07221A60002318460837BD46C9
:100C7C0080BD00BF10E000E080B582B000AF7860AE
:100C8C007868FFF749FF00BF0837BD4680BD80B5C7
:100C9C0086B000AF0346B9607A60FB7300237B61BA
:100CAC00FFF75EFF78617A68B9687869FFF790FFA3
:100CBC00024697F90F3011461846FFF75FFF00BF49
:100CCC001837BD4680BD80B582B000AF78607868BB
:100CDC00FFF7B0FF034618460837BD4680BD00003D
:100CEC0080B483B000AF78607B68042B06D1094BCD
:100CFC001B68084A43F00403136005E0054B1B68AE
:100D0C00044A23F00403136000BF0C37BD4680BCBB
:100D1C00704700BF10E000E080B500AF00F002F8B3
:100D2C0000BF80BD80B400AF00BFBD4680BC704723
:100D3C0080B48BB000AF7860396000237B620023F5
:100D4C003B6269E101227B6A02FA03F3FB613B68B7
:100D5C001B68FA691340BB61BA69FB699A4240F09F
:100D6C0058813B685B689A4A93425ED0984A93429A
:100D7C0075D8984A934258D0964A93426FD8964A5F
:100D8C00934252D0944A934269D8944A93424CD09D
:100D9C00924A934263D8924A934246D0904A9342E5
:100DAC005DD8122B2AD8122B59D801A252F823F055
:100DBC00370E0008110E0008230E0008650E0008FF
:100DCC006B0E00086B0E00086B0E00086B0E000813
:100DDC006B0E00086B0E00086B0E00086B0E000803
:100DEC006B0E00086B0E00086B0E00086B0E0008F3
:100DFC006B0E0008190E00082D0E0008794A93425C
:100E0C0013D02CE03B68DB683B6229E03B68DB6875
:100E1C0004333B6224E03B68DB6808333B621FE031
:100E2C003B68DB680C333B621AE03B689B68002B29
:100E3C0002D104233B6213E03B689B68012B05D174
:100E4C0008233B627B68FA691A6109E008233B625C
:100E5C007B68FA695A6103E000233B6200E000BF43
:100E6C00BB69FF2B01D87B6801E07B6804337B6195
:100E7C00BB69FF2B02D87B6A9B0002E07B6A083BB4
:100E8C009B003B617B691A680F213B6901FA03F3F4
:100E9C00DB431A40396A3B6901FA03F31A437B6955
:100EAC001A603B685B6803F08053002B00F0B18044
:100EBC004D4B9B694C4A43F0010393614A4B9B6930
:100ECC0003F00103BB60BB68484A7B6A9B08023392
:100EDC0052F82330FB607B6A03F003039B000F2264
:100EEC0002FA03F3DB43FA681340FB607B68404A69
:100EFC00934213D07B683F4A93420DD07B683E4AA5
:100F0C00934207D07B683D4A934201D1032306E00C
:100F1C00042304E0022302E0012300E000237A6AA8
:100F2C0002F0030292009340FA681343FB602F49CE
:100F3C007B6A9B080233FA6841F823203B685B68A4
:100F4C0003F48013002B06D02D4B9A682C49BB69F7
:100F5C0013438B6006E02A4B9A68BB69DB43284934
:100F6C0013408B603B685B6803F40013002B06D0C6
:100F7C00234BDA682249BB691343CB6006E0204B54
:100F8C00DA68BB69DB431E491340CB603B685B6886
:100F9C0003F40033002B06D0194B5A681849BB696F
:100FAC0013434B6006E0164B5A68BB69DB4314498C
:100FBC0013404B603B685B6803F48033002B21D0FB
:100FCC000F4B1A680E49BB6913430B6021E000BF3D
:100FDC00000032100000311000002210000021101F
:100FEC00000012100000111000100240000001401F
:100FFC0000080140000C01400010014000140140A9
:10100C00000401400B4B1A68BB69DB4309491340D0
:10101C000B607B6A01337B623B681A687B6A22FA3D
:10102C0003F3002B7FF48EAE00BF00BF2C37BD4600
:10103C0080BC70470004014080B586B000AF78607A
:10104C007B68002B01D1012372E27B681B6803F0E3
:10105C000103002B00F08780924B5B6803F00C03BC
:10106C00042B0CD08F4B5B6803F00C03082B12D1B4
:10107C008C4B5B6803F48033B3F5803F0BD1894B09
:10108C001B6803F40033002B6CD07B685B68002B6F
:10109C0068D101234CE27B685B68B3F5803F06D1D5
:1010AC00804B1B687F4A43F4803313602EE07B68CF
:1010BC005B68002B0CD17B4B1B687A4A23F4803382
:1010CC001360784B1B68774A23F4802313601DE070
:1010DC007B685B68B3F5A02F0CD1724B1B68714A0F
:1010EC0043F4802313606F4B1B686E4A43F48033C8
:1010FC0013600BE06B4B1B686A4A23F4803313605C
:10110C00684B1B68674A23F4802313607B685B6819
:10111C00002B13D0FFF7A0FA386108E0FFF79CFA18
:10112C0002463B69D31A642B01D9032300E25D4BC1
:10113C001B6803F40033002BF0D014E0FFF78CFA9B
:10114C00386108E0FFF788FA02463B69D31A642B32
:10115C0001D90323ECE1534B1B6803F40033002B40
:10116C00F0D100E000BF7B681B6803F00203002B8A
:10117C0063D04C4B5B6803F00C03002B0BD0494B3A
:10118C005B6803F00C03082B1CD1464B5B6803F423
:10119C008033002B16D1434B1B6803F00203002B4A
:1011AC0005D07B681B69012B01D00123C0E13D4BAD
:1011BC001B6823F0F8027B685B69DB003949134339
:1011CC000B603AE07B681B69002B20D0364B012268
:1011DC001A60FFF741FA386108E0FFF73DFA024662
:1011EC003B69D31A022B01D90323A1E12D4B1B68B8
:1011FC0003F00203002BF0D02A4B1B6823F0F802FB
:10120C007B685B69DB00274913430B6015E0264BB9
:10121C0000221A60FFF720FA386108E0FFF71CFA89
:10122C0002463B69D31A022B01D9032380E11D4BE3
:10123C001B6803F00203002BF0D17B681B6803F0E2
:10124C000803002B3AD07B689B69002B19D0174BF5
:10125C0001221A60FFF700FA386108E0FFF7FCF989
:10126C0002463B69D31A022B01D9032360E10D4BD3
:10127C005B6A03F00203002BF0D0012000F0CEFAE1
:10128C001CE00A4B00221A60FFF7E6F938610FE008
:10129C00FFF7E2F902463B69D31A022B08D9032364
:1012AC0046E100BF0010024000004242800442426E
:1012BC00924B5B6A03F00203002BE9D17B681B683D
:1012CC0003F00403002B00F0A6800023FB758B4B6E
:1012DC00DB6903F08053002B0DD1884BDB69874A07
:1012EC0043F08053D361854BDB6903F08053BB60C3
:1012FC00BB680123FB75824B1B6803F48073002BC6
:10130C0018D17F4B1B687E4A43F480731360FFF740
:10131C00A3F9386108E0FFF79FF902463B69D31A3D
:10132C00642B01D9032303E1754B1B6803F4807311
:10133C00002BF0D07B68DB68012B06D16F4B1B6A4E
:10134C006E4A43F0010313622DE07B68DB68002BCF
:10135C000CD16A4B1B6A694A23F001031362674B79
:10136C001B6A664A23F0040313621CE07B68DB688B
:10137C00052B0CD1614B1B6A604A43F004031362CA
:10138C005E4B1B6A5D4A43F0010313620BE05B4B3F
:10139C001B6A5A4A23F001031362584B1B6A574AC3
:1013AC0023F0040313627B68DB68002B15D0FFF776
:1013BC0053F938610AE0FFF74FF902463B69D31A3B
:1013CC0041F28832934201D90323B1E04B4B1B6AA3
:1013DC0003F00203002BEED014E0FFF73DF9386167
:1013EC000AE0FFF739F902463B69D31A41F2883219
:1013FC00934201D903239BE0404B1B6A03F0020389
:10140C00002BEED1FB7D012B05D13C4BDB693B4A1C
:10141C0023F08053D3617B68DB69002B00F087805D
:10142C00364B5B6803F00C03082B61D07B68DB69DF
:10143C00022B46D1334B00221A60FFF70DF93861AD
:10144C0008E0FFF709F902463B69D31A022B01D9D0
:10145C0003236DE0294B1B6803F00073002BF0D1C4
:10146C007B681B6AB3F5803F08D1244B5B6823F47F
:10147C0000327B689B68214913434B601F4B5B68B0
:10148C0023F474127B68196A7B685B6A0B431B49F3
:10149C0013434B601B4B01221A60FFF7DDF83861D8
:1014AC0008E0FFF7D9F802463B69D31A022B01D9A1
:1014BC0003233DE0114B1B6803F00073002BF0D0AD
:1014CC0035E0104B00221A60FFF7C6F8386108E0CF
:1014DC00FFF7C2F802463B69D31A022B01D903234A
:1014EC0026E0064B1B6803F00073002BF0D11EE0C6
:1014FC007B68DB69012B07D1012319E00010024046
:10150C0000700040600042420B4B5B68FB60FB6864
:10151C0003F480327B681B6A9A4206D1FB6803F4A1
:10152C0070127B685B6A9A4201D0012300E00023B1
:10153C0018461837BD4680BD0010024080B584B0F7
:10154C0000AF786039607B68002B01D10123D0E0BB
:10155C006A4B1B6803F007033A689A4210D9674B31
:10156C001B6823F0070265493B6813430B60634B10
:10157C001B6803F007033A689A4201D00123B8E0D4
:10158C007B681B6803F00203002B20D07B681B6870
:10159C0003F00403002B05D0594B5B68584A43F405
:1015AC00E06353607B681B6803F00803002B05D0D5
:1015BC00534B5B68524A43F460535360504B5B6827
:1015CC0023F0F0027B689B684D4913434B607B68AA
:1015DC001B6803F00103002B40D07B685B68012B78
:1015EC0007D1474B1B6803F40033002B15D10123A3
:1015FC007FE07B685B68022B07D1414B1B6803F0D3
:10160C000073002B09D1012373E03D4B1B6803F0E1
:10161C000203002B01D101236BE0394B5B6823F0F3
:10162C0003027B685B68364913434B60FFF714F881
:10163C00F8600AE0FFF710F80246FB68D31A41F293
:10164C008832934201D9032353E02D4B5B6803F09E
:10165C000C027B685B689B009A42EBD1274B1B68A2
:10166C0003F007033A689A4210D2244B1B6823F00C
:10167C00070222493B6813430B60204B1B6803F0A5
:10168C0007033A689A4201D0012332E07B681B6859
:10169C0003F00403002B08D0194B5B6823F4E062C1
:1016AC007B68DB68164913434B607B681B6803F04F
:1016BC000803002B09D0124B5B6823F460527B6843
:1016CC001B69DB000E4913434B6000F021F8024606
:1016DC000B4B5B681B0903F00F030A49CB5C22FA26
:1016EC0003F3094A1360094B1B681846FEF772FF97
:1016FC00002318461037BD4680BD00BF00200240B5
:10170C0000100240682600080000002004000020A1
:10171C0080B487B000AF0023FB600023BB600023C4
:10172C007B6100237B6000233B611E4B5B68FB608D
:10173C00FB6803F00C03042B02D0082B03D027E02A
:10174C00194B3B6127E0FB689B0C03F00F03174A16
:10175C00D35C7B60FB6803F48033002B10D0114BFF
:10176C005B685B0C03F00103114AD35CBB607B68C4
:10177C000D4A03FB02F2BB68B2FBF3F37B6104E09E
:10178C007B680C4A02FB03F37B617B693B6102E0E3
:10179C00054B3B6100BF3B6918461C37BD4680BCFE
:1017AC00704700BF0010024000127A00802600082B
:1017BC009026000800093D0080B400AF024B1B6866
:1017CC001846BD4680BC70470000002080B500AFB5
:1017DC00FFF7F2FF0246054B5B681B0A03F0070399
:1017EC000349CB5C22FA03F3184680BD001002407B
:1017FC007826000880B500AFFFF7DEFF0246054BE8
:10180C005B68DB0A03F007030349CB5C22FA03F3A2
:10181C00184680BD001002407826000880B485B0C0
:10182C0000AF78600A4B1B680A4AA2FB03235B0AD1
:10183C007A6802FB03F3FB6000BFFB685A1EFA6078
:10184C00002BF9D100BF00BF1437BD4680BC7047D8
:10185C0000000020D34D621080B582B000AF7860DC
:10186C007B68002B01D1012342E07B6893F8413067
:10187C00DBB2002B06D17B68002283F8402078680D
:10188C00FEF7DAFD7B68242283F841207B681B6815
:10189C00DA687B681B6822F40052DA60786800F022
:1018AC0071F97B681B681A697B681B6822F490428B
:1018BC001A617B681B685A697B681B6822F02A02D4
:1018CC005A617B681B68DA687B681B6842F40052BB
:1018DC00DA607B6800225A647B68202283F84120FE
:1018EC007B68202283F842207B6800225A63002305
:1018FC0018460837BD4680BD80B58AB002AFF86087
:10190C00B9603B601346FB8000237B61FB6893F856
:10191C004130DBB2202B75D1BB68002B02D0FB8889
:10192C00002B01D101236EE0FB6800225A64FB6896
:10193C00212283F84120FEF78FFE7861FB68FA883C
:10194C009A84FB68FA88DA84FB689B68B3F5805F3D
:10195C0008D1FB681B69002B04D10023FB61BB6819
:10196C00BB6103E0BB68FB610023BB612EE03B68FD
:10197C0000937B6900228021F86800F048F8034648
:10198C00002B05D0FB68202283F8412003233AE08A
:10199C00FB69002B0BD1BB691B881A46FB681B68C3
:1019AC00C2F308025A60BB690233BB6107E0FB69F2
:1019BC001A78FB681B685A60FB690133FB61FB6892
:1019CC00DB8C9BB2013B9AB2FB68DA84FB68DB8C44
:1019DC009BB2002BCBD13B6800937B69002240214A
:1019EC00F86800F014F80346002B05D0FB682022A1
:1019FC0083F84120032306E0FB68202283F8412072
:101A0C00002300E0022318462037BD4680BD80B578
:101A1C0086B000AFF860B9603B601346FB713BE0E9
:101A2C003B6AB3F1FF3F37D0FEF716FE02463B6828
:101A3C00D31A3A6A9A4202D33B6A002B01D1032390
:101A4C003AE0FB681B68DB6803F00403002B23D02F
:101A5C00BB68802B20D0BB68402B1DD0FB681B685B
:101A6C001B6803F00803082B16D100237B61FB686D
:101A7C001B681B687B61FB681B685B687B617B690F
:101A8C00F86800F01DF8FB6808225A64FB68002215
:101A9C0083F8402001230FE0FB681B681A68BB68C1
:101AAC001340BA689A420CBF01230023DBB21A46DA
:101ABC00FB799A42B4D0002318461837BD4680BD36
:101ACC0080B495B000AF78607B681B680C337B6387
:101ADC007B6B53E8003F3B633B6B23F49073FB64DD
:101AEC007B681B680C33FA6C3A64FB63F96B3A6CD9
:101AFC0041E80023BB63BB6B002BE5D17B681B6803
:101B0C0014333B623B6A53E8003FFB61FB6923F0F3
:101B1C000103BB647B681B681433BA6CFA62BB624A
:101B2C00B96AFA6A41E800237B627B6A002BE5D133
:101B3C007B681B6B012B19D17B681B680C33FB601A
:101B4C00FB6853E8003FBB60BB6823F010037B6469
:101B5C007B681B680C337A6CBA617B617969BA69F2
:101B6C0041E800233B613B69002BE5D17B682022D7
:101B7C0083F842207B6800221A6300BF5437BD46AD
:101B8C0080BC704780B584B000AF78607B681B6800
:101B9C001B6923F440517B68DA687B681B680A4335
:101BAC001A617B689A687B681B691A437B685B695E
:101BBC001343BB607B681B68DB6823F4B05323F0D2
:101BCC000C037A681268B9680B43D3607B681B6896
:101BDC005B6923F440717B689A697B681B680A43D4
:101BEC005A617B681B682C4A934203D1FFF702FEB3
:101BFC00F86002E0FFF7EAFDF860FA6813469B0014
:101C0C0013449A001A447B685B689B00B2FBF3F3A5
:101C1C00224AA2FB03235B091901FA6813469B00B5
:101C2C0013449A001A447B685B689B00B2FBF3F286
:101C3C001A4BA3FB02035B09642000FB03F3D31ACA
:101C4C001B013233154AA2FB03235B0903F0F0039B
:101C5C001944FA6813469B0013449A001A447B6893
:101C6C005B689B00B2FBF3F20C4BA3FB02035B091A
:101C7C00642000FB03F3D31A1B013233074AA2FB87
:101C8C0003235B0903F00F027B681B680A449A600C
:101C9C0000BF1037BD4680BD003801401F85EB5199
:101CAC000EB46FF0004100B59CB01DAB02900690D5
:101CBC00079104910848094953F8042B05910068D1
:101CCC0002A9019300F08CF90022029B1A701CB03F
:101CDC005DF804EB03B070470C0000200802FFFF16
:101CEC0003460244934200D1704703F8011BF9E705
:101CFC0070B500260C4D0D4C641BA410A64209D1E6
:101D0C0000F086FC00260A4D0A4C641BA410A64267
:101D1C0005D170BD55F8043B98470136EEE755F8F0
:101D2C00043B98470136F2E7D0260008D02600087D
:101D3C00D0260008D42600087047704738B50546F1
:101D4C00002940D051F8043C0C1F002BB8BFE418FC
:101D5C0000F0DEF81C4A136833B96360146028463F
:101D6C00BDE8384000F0DAB8A34208D92068211841
:101D7C008B4201BF19685B6809182160EDE71A46B0
:101D8C005B680BB1A342FAD911685018A0420BD171
:101D9C0020680144501883421160E0D118685B68D8
:101DAC00084410605360DAE702D90C232B60D6E7A5
:101DBC00206821188B4201BF19685B6809182160E3
:101DCC0063605460CBE738BD9402002070B50F4EB1
:101DDC000C463168054611B900F0AAFB306021466B
:101DEC00284600F0A5FB431C03D14FF0FF342046DE
:101DFC0070BDC41C24F00304A042F8D0211A28465C
:101E0C0000F096FB0130F2D1EFE700BF900200200A
:101E1C002DE9F843CD1C25F0030508350C2D38BFF2
:101E2C000C25002D064601DBA94204D90C23336096
:101E3C000020BDE8F883DFF8D48000F069F8D8F80A
:101E4C0000301C4644BB29463046FFF7BFFF431CFD
:101E5C00044658D1D8F800402746002F43D1002C17
:101E6C004BD023683946304604EB030900F060FB85
:101E7C00814542D1216830466D1A2946FFF7A6FFED
:101E8C0001303AD023682B442360D8F800305A68CC
:101E9C0062BBC8F800700FE02268521B20D40B2ADA
:101EAC0017D96119A342256018BF5960636808BF30
:101EBC00C8F8001062514B60304600F02FF804F166
:101ECC000B00231D20F00700C21A1CBF1B1AA350C5
:101EDC00AFE76268A3420CBFC8F800205A60EBE77A
:101EEC0023466468AEE73C467F68B6E71A465B68F3
:101EFC00A342FBD100235360DEE70C233046336052
:101F0C0000F00CF894E70560D6E700BF94020020BF
:101F1C000148FFF711BF00BF8C0200200148FFF7FA
:101F2C000CBF00BF8C0200202DE9F0471F468E68C5
:101F3C008246BE420C4690460B682DD8B1F90C2057
:101F4C0012F4906F26D06569096905EB4505A3EB82
:101F5C00010905EBD5757B1C4B446D109D4238BFB8
:101F6C001D46530527D52946FFF752FF064660B399
:101F7C004A46216900F0FAFAA38923F4906343F0EE
:101F8C008003A38126614E4426603E466561A5EB25
:101F9C000905A560BE4200D93E463246414620683E
:101FAC0000F0ACFA0020A3689B1BA36023683344A9
:101FBC002360BDE8F0872A4600F0E6FA06460028C2
:101FCC00E0D150462169FFF7B9FE0C23CAF8003066
:101FDC00A3894FF0FF3043F04003A381E9E70000F1
:101FEC002DE9F04F98468B8907461B060D46144683
:101FFC009DB010D50B6973B94021FFF709FF28601C
:10200C00286130B90C233B604FF0FF301DB0BDE8A8
:10201C00F08F40236B610023099320238DF8293026
:10202C0030234FF00109CDF80C80DFF898818DF842
:10203C002A3023469A4613F8012B0AB1252AF9D1E6
:10204C00BAEB040B0BD05B46224629463846FFF709
:10205C006BFF013000F0A780099A5A4409929AF854
:10206C000030002B00F09F8000234FF0FF32CDE9B1
:10207C0005230AF1010A049307938DF853301A9340
:10208C005446052214F8011B4E4800F061FA049ADC
:10209C00D8B9D00644BF20238DF85330110744BF64
:1020AC002B238DF853309AF800302A2B15D0544638
:1020BC0000204FF00A0C079A214611F8013B303BE7
:1020CC00092B4BD9B0B1079214E0A0EB080309FA25
:1020DC0003F31343A2460493D2E7039B191D1B6819
:1020EC000391002BBBBF5B4242F0020207930793A4
:1020FC00B8BF049223782E2B0AD163782A2B32D1C5
:10210C00039B02341A1D1B68039243EAE373059385
:10211C00DFF8B4A003225046217800F019FA38B148
:10212C004022049BA0EB0A00824013430134049329
:10213C0014F8011B062225488DF8281000F008FA27
:10214C00002836D0224B1BBB039B073323F007031D
:10215C0008330393099B334409936AE70C46012027
:10216C000CFB0232A8E700234FF00A0C194601348D
:10217C000593204610F8012B303A092A03D9002B7D
:10218C00C6D00591C4E7044601230CFB0121F0E7FE
:10219C0003AB00932A4638460E4B04A9AFF30080DC
:1021AC00421C0646D6D1AB895B063FF52DAF09988C
:1021BC002CE703AB00932A463846064B04A900F0E3
:1021CC007DF8EDE792260008982600089C2600086A
:1021DC0000000000351F00082DE9F0471646984610
:1021EC008A680B6907469342B8BF1346336091F86F
:1021FC0043200C46DDF820900AB10133336023688C
:10220C00990642BF336802333360256815F0060522
:10221C0006D104F1190AE36832689B1AAB422BDC35
:10222C0094F843302268003B18BF0123920630D447
:10223C004146384604F14302C847013023D0236895
:10224C00226903F00603042B14BF002533684FF0FA
:10225C00000608BFE56804F11A0408BFED1A54F82B
:10226C00123C08BF25EAE5759342C4BF9B1AED18D2
:10227C00B5421AD1002008E00123524641463846A7
:10228C00C847013003D14FF0FF30BDE8F08701356E
:10229C00C1E73020E11881F843005A1C94F845102E
:1022AC002244023382F84310C2E7012322464146FE
:1022BC003846C8470130E6D00136D9E72DE9FF474B
:1022CC000F7E9146782F80460C469A460C9E01F163
:1022DC00430207D8622F0AD8002F00F0D380582F62
:1022EC0000F0BA8004F1420684F842703AE0A7F19B
:1022FC006303152BF6D801A151F823F061230008D4
:10230C0075230008F1220008F1220008F1220008D0
:10231C00F122000875230008F1220008F1220008C0
:10232C00F1220008F1220008772400089F230008FE
:10233C0031240008F1220008F12200089924000839
:10234C00F12200089F230008F1220008F122000866
:10235C003924000833681A1D1B68326004F14206E8
:10236C0084F8423001239EE033682068191D3160E7
:10237C00060601D51D6803E04506FBD5B3F90050F0
:10238C00002D03DA2D236D4284F843300A2359487B
:10239C0011E021683368080653F8045B02D449063F
:1023AC0048BFADB26F2F336014BF0A2308235148C6
:1023BC00002184F843106668002EA8BF2168A6602F
:1023CC00A4BF21F0040121600DB9002E4BD016469C
:1023DC00B5FBF3F103FB1157C75D06F8017D2F46E2
:1023EC00BB420D46F4D9082B0BD12368DF0708D567
:1023FC00236961689942DEBF302306F8013C06F17F
:10240C00FF36921B22614B4621464046CDF800A078
:10241C0003AAFFF7E1FE01304AD14FF0FF3004B0C0
:10242C00BDE8F087236843F0200323607827324807
:10243C0084F84570236831681F0651F8045B02D498
:10244C005F0648BFADB23160D90744BF43F02003EB
:10245C0023601DB11023ABE72648E9E7236823F07E
:10246C0020032360F6E71646BDE733682568181D80
:10247C00616930602E061B6801D5196002E06806A0
:10248C00FBD51980002316462361BCE73368002175
:10249C001A1D32601E686268304600F059F808B1A7
:1024AC00801B606063682361002384F84330AAE7D3
:1024BC003246494640462369D0470130ADD02368A7
:1024CC009B0713D4E068039B9842B8BF1846A6E755
:1024DC000123324649464046D04701309DD0013554
:1024EC00E36803995B1AAB42F2DCEBE7002504F1DD
:1024FC001906F5E7A3260008B4260008884210B593
:10250C0001EB020402D98442234607D8431EA142A0
:10251C0008D011F8012B03F8012FF8E7014602440B
:10252C008A4200D110BD13F8014D02F8014DF7E7B6
:10253C0038B50023054D044608462B6000F05AF8C8
:10254C00431C02D12B6803B1236038BD88020020E4
:10255C00034610B5C9B202449342184601D100207B
:10256C0003E0047801338C42F6D110BD0A44914249
:10257C0000F1FF3300D1704710B511F8014B9142B7
:10258C0003F8014FF9D110BD2DE9F04180461546F5
:10259C000C4621B91146BDE8F041FFF739BC2AB908
:1025AC00FFF7CCFB00242046BDE8F08100F01AF8C0
:1025BC008542064602D8B5EB500FF4D82946404662
:1025CC00FFF726FC07460028ECD0B5422A462146E8
:1025DC0028BF3246FFF7CAFF21464046FFF7AEFB45
:1025EC003C46E0E751F8043C181F002BBCBF0B58CD
:1025FC00C0187047044A0346116809B903491160B1
:10260C00106803441360704798020020A002002059
:10261C00F8B500BFF8BC08BC9E467047F8B500BFC3
:08262C00F8BC08BC9E46704793
:102634006572726F7220636F64653A2025640D0AB7
:10264400000000004D657373616765207472616EEC
:10265400736D69747465640D0A0000004B41414E4A
:102664002049414C00000000000000000102030466
:102674000607080900000000010203040203040520
:10268400060708090A0B0C0D0E0F10100102232D6A
:10269400302B2000686C4C00656667454647003067
:1026A40031323334353637383941424344454600B4
:1026B40030313233343536373839616263646566B4
:0426C4000000000012
:0826C80084DAFF7F010000002D
:0426D00031010008CC
:0426D4000D010008EC
:1026D80000127A0010000000010000001000002025
:1026E8000000000050010020B80100202002002056
:1026F80000000000000000000000000000000000D2
:1027080000000000000000000000000000000000C1
:1027180000000000000000000000000000000000B1
:0C272800000000000000000000000000A5
:040000050800056981
:00000001FF
